{
  "contractName": "Todo",
  "abi": [
    {
      "inputs": [],
      "stateMutability": "nonpayable",
      "type": "constructor"
    },
    {
      "inputs": [],
      "name": "taskCount",
      "outputs": [
        {
          "internalType": "uint256",
          "name": "",
          "type": "uint256"
        }
      ],
      "stateMutability": "view",
      "type": "function",
      "constant": true
    },
    {
      "inputs": [
        {
          "internalType": "uint256",
          "name": "",
          "type": "uint256"
        }
      ],
      "name": "tasks",
      "outputs": [
        {
          "internalType": "uint256",
          "name": "id",
          "type": "uint256"
        },
        {
          "internalType": "string",
          "name": "heading",
          "type": "string"
        },
        {
          "internalType": "string",
          "name": "description",
          "type": "string"
        }
      ],
      "stateMutability": "view",
      "type": "function",
      "constant": true
    },
    {
      "inputs": [
        {
          "internalType": "string",
          "name": "head",
          "type": "string"
        },
        {
          "internalType": "string",
          "name": "desc",
          "type": "string"
        }
      ],
      "name": "createTask",
      "outputs": [],
      "stateMutability": "nonpayable",
      "type": "function"
    },
    {
      "inputs": [
        {
          "internalType": "uint256",
          "name": "id",
          "type": "uint256"
        },
        {
          "internalType": "string",
          "name": "head",
          "type": "string"
        },
        {
          "internalType": "string",
          "name": "desc",
          "type": "string"
        }
      ],
      "name": "updateTask",
      "outputs": [],
      "stateMutability": "nonpayable",
      "type": "function"
    },
    {
      "inputs": [
        {
          "internalType": "uint256",
          "name": "id",
          "type": "uint256"
        }
      ],
      "name": "deleteTask",
      "outputs": [],
      "stateMutability": "nonpayable",
      "type": "function"
    }
  ],
  "bytecode": "0x608060405234801561001057600080fd5b5060008081905550610b8a806100276000396000f3fe608060405234801561001057600080fd5b5060043610610074576000357c010000000000000000000000000000000000000000000000000000000090048063292a458514610079578063560f3192146100955780638d977672146100b1578063b6cb58a5146100e3578063c72ef41f14610101575b600080fd5b610093600480360381019061008e9190610576565b61011d565b005b6100af60048036038101906100aa9190610624565b6101b4565b005b6100cb60048036038101906100c69190610624565b610204565b6040516100da939291906106df565b60405180910390f35b6100eb61034e565b6040516100f89190610724565b60405180910390f35b61011b6004803603810190610116919061073f565b610354565b005b6001604051806060016040528060008081548092919061013c906107f9565b9190505581526020018481526020018381525090806001815401808255809150506001900390600052602060002090600302016000909190919091506000820151816000015560208201518160010190816101979190610a53565b5060408201518160020190816101ad9190610a53565b5050505050565b600181815481106101c8576101c7610b25565b5b90600052602060002090600302016000808201600090556001820160006101ef91906103bf565b6002820160006101ff91906103bf565b505050565b6001818154811061021457600080fd5b906000526020600020906003020160009150905080600001549080600101805461023d90610870565b80601f016020809104026020016040519081016040528092919081815260200182805461026990610870565b80156102b65780601f1061028b576101008083540402835291602001916102b6565b820191906000526020600020905b81548152906001019060200180831161029957829003601f168201915b5050505050908060020180546102cb90610870565b80601f01602080910402602001604051908101604052809291908181526020018280546102f790610870565b80156103445780601f1061031957610100808354040283529160200191610344565b820191906000526020600020905b81548152906001019060200180831161032757829003601f168201915b5050505050905083565b60005481565b816001848154811061036957610368610b25565b5b906000526020600020906003020160010190816103869190610a53565b50806001848154811061039c5761039b610b25565b5b906000526020600020906003020160020190816103b99190610a53565b50505050565b5080546103cb90610870565b6000825580601f106103dd57506103fc565b601f0160209004906000526020600020908101906103fb91906103ff565b5b50565b5b80821115610418576000816000905550600101610400565b5090565b6000604051905090565b600080fd5b600080fd5b600080fd5b600080fd5b6000601f19601f8301169050919050565b7f4e487b7100000000000000000000000000000000000000000000000000000000600052604160045260246000fd5b6104838261043a565b810181811067ffffffffffffffff821117156104a2576104a161044b565b5b80604052505050565b60006104b561041c565b90506104c1828261047a565b919050565b600067ffffffffffffffff8211156104e1576104e061044b565b5b6104ea8261043a565b9050602081019050919050565b82818337600083830152505050565b6000610519610514846104c6565b6104ab565b90508281526020810184848401111561053557610534610435565b5b6105408482856104f7565b509392505050565b600082601f83011261055d5761055c610430565b5b813561056d848260208601610506565b91505092915050565b6000806040838503121561058d5761058c610426565b5b600083013567ffffffffffffffff8111156105ab576105aa61042b565b5b6105b785828601610548565b925050602083013567ffffffffffffffff8111156105d8576105d761042b565b5b6105e485828601610548565b9150509250929050565b6000819050919050565b610601816105ee565b811461060c57600080fd5b50565b60008135905061061e816105f8565b92915050565b60006020828403121561063a57610639610426565b5b60006106488482850161060f565b91505092915050565b61065a816105ee565b82525050565b600081519050919050565b600082825260208201905092915050565b60005b8381101561069a57808201518184015260208101905061067f565b60008484015250505050565b60006106b182610660565b6106bb818561066b565b93506106cb81856020860161067c565b6106d48161043a565b840191505092915050565b60006060820190506106f46000830186610651565b818103602083015261070681856106a6565b9050818103604083015261071a81846106a6565b9050949350505050565b60006020820190506107396000830184610651565b92915050565b60008060006060848603121561075857610757610426565b5b60006107668682870161060f565b935050602084013567ffffffffffffffff8111156107875761078661042b565b5b61079386828701610548565b925050604084013567ffffffffffffffff8111156107b4576107b361042b565b5b6107c086828701610548565b9150509250925092565b7f4e487b7100000000000000000000000000000000000000000000000000000000600052601160045260246000fd5b6000610804826105ee565b91507fffffffffffffffffffffffffffffffffffffffffffffffffffffffffffffffff8203610836576108356107ca565b5b600182019050919050565b7f4e487b7100000000000000000000000000000000000000000000000000000000600052602260045260246000fd5b6000600282049050600182168061088857607f821691505b60208210810361089b5761089a610841565b5b50919050565b60008190508160005260206000209050919050565b60006020601f8301049050919050565b60008160020a8302905092915050565b6000600883026109067fffffffffffffffffffffffffffffffffffffffffffffffffffffffffffffffff826108c6565b61091086836108c6565b95508019841693508086168417925050509392505050565b6000819050919050565b600061094d610948610943846105ee565b610928565b6105ee565b9050919050565b6000819050919050565b61096783610932565b61097b61097382610954565b8484546108d6565b825550505050565b600090565b610990610983565b61099b81848461095e565b505050565b5b818110156109bf576109b4600082610988565b6001810190506109a1565b5050565b601f821115610a04576109d5816108a1565b6109de846108b6565b810160208510156109ed578190505b610a016109f9856108b6565b8301826109a0565b50505b505050565b60008160020a8304905092915050565b6000610a2a60001984600802610a09565b1980831691505092915050565b6000610a438383610a19565b9150826002028217905092915050565b610a5c82610660565b67ffffffffffffffff811115610a7557610a7461044b565b5b610a7f8254610870565b610a8a8282856109c3565b600060209050601f831160018114610abd5760008415610aab578287015190505b610ab58582610a37565b865550610b1d565b601f198416610acb866108a1565b60005b82811015610af357848901518255600182019150602085019450602081019050610ace565b86831015610b105784890151610b0c601f891682610a19565b8355505b6001600288020188555050505b505050505050565b7f4e487b7100000000000000000000000000000000000000000000000000000000600052603260045260246000fdfea264697066735822122006afcf22604cd8af84affddc576f4c636986851fa156ac9748a83238feeb854a64736f6c63430008110033",
  "immutableReferences": {},
  "source": "// SPDX-License-Identifier: MIT\npragma solidity >=0.4.22 <0.9.0;\n\ncontract Todo {\n    uint256 public taskCount;\n    struct Task {\n        uint256 id;\n        string heading;\n        string description;\n    }\n\n    Task[] public tasks;\n\n    constructor() {\n        taskCount = 0;\n    }\n\n    function createTask(string memory head, string memory desc) public {\n        tasks.push(Task(taskCount++, head, desc));\n    }\n\n    function updateTask(\n        uint256 id,\n        string memory head,\n        string memory desc\n    ) public {\n        tasks[id].heading = head;\n        tasks[id].description = desc;\n    }\n\n    function deleteTask(uint256 id) public {\n        delete tasks[id];\n    }\n}\n",
  "sourcePath": "/Users/akshitdudeja/Documents/Code/Blockchain/todo_flutter_blockchain/contracts/Todo.sol",
  "compiler": {
    "name": "solc",
    "version": "0.8.17+commit.8df45f5f.Emscripten.clang"
  },
  "schemaVersion": "3.4.11",
  "updatedAt": "2022-12-17T14:01:21.947Z",
  "networkType": "ethereum",
  "devdoc": {
    "kind": "dev",
    "methods": {},
    "version": 1
  },
  "userdoc": {
    "kind": "user",
    "methods": {},
    "version": 1
  }
}